{
	"data": {
		"bytecode": {
			"linkReferences": {},
			"object": "60806040526103e860025534801561001657600080fd5b506040516101703803806101708339818101604052604081101561003957600080fd5b8101908080519060200190929190805190602001909291905050508160008190555080600181905550505060fe806100726000396000f3fe60806040526004361060265760003560e01c8063c28dcbdd14602b578063d02cdea2146056575b600080fd5b605460048036036020811015603f57600080fd5b8101908080359060200190929190505050606a565b005b348015606157600080fd5b5060686095565b005b80600054036001541115607b576092565b806002540160028190555080600054036000819055505b50565b600054600154111560c55760008054600154039050806002540360028190555080600054016000819055505060c6565b5b56fea2646970667358221220e39d1ea4ee92d938dd4bcb477d13cb7052993f1bbc0aa27e56bc207be6c35fb664736f6c63430007060033",
			"opcodes": "PUSH1 0x80 PUSH1 0x40 MSTORE PUSH2 0x3E8 PUSH1 0x2 SSTORE CALLVALUE DUP1 ISZERO PUSH2 0x16 JUMPI PUSH1 0x0 DUP1 REVERT JUMPDEST POP PUSH1 0x40 MLOAD PUSH2 0x170 CODESIZE SUB DUP1 PUSH2 0x170 DUP4 CODECOPY DUP2 DUP2 ADD PUSH1 0x40 MSTORE PUSH1 0x40 DUP2 LT ISZERO PUSH2 0x39 JUMPI PUSH1 0x0 DUP1 REVERT JUMPDEST DUP2 ADD SWAP1 DUP1 DUP1 MLOAD SWAP1 PUSH1 0x20 ADD SWAP1 SWAP3 SWAP2 SWAP1 DUP1 MLOAD SWAP1 PUSH1 0x20 ADD SWAP1 SWAP3 SWAP2 SWAP1 POP POP POP DUP2 PUSH1 0x0 DUP2 SWAP1 SSTORE POP DUP1 PUSH1 0x1 DUP2 SWAP1 SSTORE POP POP POP PUSH1 0xFE DUP1 PUSH2 0x72 PUSH1 0x0 CODECOPY PUSH1 0x0 RETURN INVALID PUSH1 0x80 PUSH1 0x40 MSTORE PUSH1 0x4 CALLDATASIZE LT PUSH1 0x26 JUMPI PUSH1 0x0 CALLDATALOAD PUSH1 0xE0 SHR DUP1 PUSH4 0xC28DCBDD EQ PUSH1 0x2B JUMPI DUP1 PUSH4 0xD02CDEA2 EQ PUSH1 0x56 JUMPI JUMPDEST PUSH1 0x0 DUP1 REVERT JUMPDEST PUSH1 0x54 PUSH1 0x4 DUP1 CALLDATASIZE SUB PUSH1 0x20 DUP2 LT ISZERO PUSH1 0x3F JUMPI PUSH1 0x0 DUP1 REVERT JUMPDEST DUP2 ADD SWAP1 DUP1 DUP1 CALLDATALOAD SWAP1 PUSH1 0x20 ADD SWAP1 SWAP3 SWAP2 SWAP1 POP POP POP PUSH1 0x6A JUMP JUMPDEST STOP JUMPDEST CALLVALUE DUP1 ISZERO PUSH1 0x61 JUMPI PUSH1 0x0 DUP1 REVERT JUMPDEST POP PUSH1 0x68 PUSH1 0x95 JUMP JUMPDEST STOP JUMPDEST DUP1 PUSH1 0x0 SLOAD SUB PUSH1 0x1 SLOAD GT ISZERO PUSH1 0x7B JUMPI PUSH1 0x92 JUMP JUMPDEST DUP1 PUSH1 0x2 SLOAD ADD PUSH1 0x2 DUP2 SWAP1 SSTORE POP DUP1 PUSH1 0x0 SLOAD SUB PUSH1 0x0 DUP2 SWAP1 SSTORE POP JUMPDEST POP JUMP JUMPDEST PUSH1 0x0 SLOAD PUSH1 0x1 SLOAD GT ISZERO PUSH1 0xC5 JUMPI PUSH1 0x0 DUP1 SLOAD PUSH1 0x1 SLOAD SUB SWAP1 POP DUP1 PUSH1 0x2 SLOAD SUB PUSH1 0x2 DUP2 SWAP1 SSTORE POP DUP1 PUSH1 0x0 SLOAD ADD PUSH1 0x0 DUP2 SWAP1 SSTORE POP POP PUSH1 0xC6 JUMP JUMPDEST JUMPDEST JUMP INVALID LOG2 PUSH5 0x6970667358 0x22 SLT KECCAK256 0xE3 SWAP14 0x1E LOG4 0xEE SWAP3 0xD9 CODESIZE 0xDD 0x4B 0xCB SELFBALANCE PUSH30 0x13CB7052993F1BBC0AA27E56BC207BE6C35FB664736F6C63430007060033 "
		},
		"gasEstimates": {
			"creation": {
				"codeDepositCost": "50800",
				"executionCost": "infinite",
				"totalCost": "infinite"
			},
			"external": {
				"getEmergencyPower()": "45040",
				"sendExtraCoal(uint256)": "43455"
			}
		},
		"methodIdentifiers": {
			"getEmergencyPower()": "d02cdea2",
			"sendExtraCoal(uint256)": "c28dcbdd"
		}
	},
	"abi": [
		{
			"inputs": [
				{
					"internalType": "uint256",
					"name": "currentPower",
					"type": "uint256"
				},
				{
					"internalType": "uint256",
					"name": "min",
					"type": "uint256"
				}
			],
			"stateMutability": "nonpayable",
			"type": "constructor"
		},
		{
			"inputs": [],
			"name": "getEmergencyPower",
			"outputs": [],
			"stateMutability": "nonpayable",
			"type": "function"
		},
		{
			"inputs": [
				{
					"internalType": "uint256",
					"name": "amount",
					"type": "uint256"
				}
			],
			"name": "sendExtraCoal",
			"outputs": [],
			"stateMutability": "payable",
			"type": "function"
		}
	]
}